{
  "transactions": [
    {
      "hash": "0x98a47ad75ccc8601084ee6a1d1e71861bca137b59e1f932b2bd7882352daa528",
      "transactionType": "CALL",
      "contractName": null,
      "contractAddress": "0x779877A7B0D9E8603169DdbD7836e478b4624789",
      "function": "transferAndCall(address,uint256,bytes)",
      "arguments": [
        "0x8103B0A8A00be2DDC778e6e7eaa21791Cd364625",
        "3000000000000000000",
        "0x0000000000000000000000000000000000000000000000000000000000002165"
      ],
      "transaction": {
        "type": "0x02",
        "from": "0xd7fa02fc332a569e1893d1859c7ac5f421dcc6b0",
        "to": "0x779877a7b0d9e8603169ddbd7836e478b4624789",
        "gas": "0x13fbe",
        "value": "0x0",
        "data": "0x4000aea00000000000000000000000008103b0a8a00be2ddc778e6e7eaa21791cd36462500000000000000000000000000000000000000000000000029a2241af62c0000000000000000000000000000000000000000000000000000000000000000006000000000000000000000000000000000000000000000000000000000000000200000000000000000000000000000000000000000000000000000000000002165",
        "nonce": "0xa",
        "accessList": []
      },
      "additionalContracts": [],
      "isFixedGasLimit": false
    }
  ],
  "receipts": [
    {
      "transactionHash": "0x98a47ad75ccc8601084ee6a1d1e71861bca137b59e1f932b2bd7882352daa528",
      "transactionIndex": "0x19",
      "blockHash": "0x56ff811a8b1fac17a633ed6fddd093d0a463e1589446d396345fb42b30de8e0b",
      "blockNumber": "0x4e5407",
      "from": "0xD7fA02fc332A569E1893d1859C7Ac5f421DCc6b0",
      "to": "0x779877A7B0D9E8603169DdbD7836e478b4624789",
      "cumulativeGasUsed": "0x171578",
      "gasUsed": "0xe77e",
      "contractAddress": null,
      "logs": [
        {
          "address": "0x779877A7B0D9E8603169DdbD7836e478b4624789",
          "topics": [
            "0xddf252ad1be2c89b69c2b068fc378daa952ba7f163c4a11628f55a4df523b3ef",
            "0x000000000000000000000000d7fa02fc332a569e1893d1859c7ac5f421dcc6b0",
            "0x0000000000000000000000008103b0a8a00be2ddc778e6e7eaa21791cd364625"
          ],
          "data": "0x00000000000000000000000000000000000000000000000029a2241af62c0000",
          "blockHash": "0x56ff811a8b1fac17a633ed6fddd093d0a463e1589446d396345fb42b30de8e0b",
          "blockNumber": "0x4e5407",
          "transactionHash": "0x98a47ad75ccc8601084ee6a1d1e71861bca137b59e1f932b2bd7882352daa528",
          "transactionIndex": "0x19",
          "logIndex": "0xf",
          "removed": false
        },
        {
          "address": "0x779877A7B0D9E8603169DdbD7836e478b4624789",
          "topics": [
            "0xe19260aff97b920c7df27010903aeb9c8d2be5d310a2c67824cf3f15396e4c16",
            "0x000000000000000000000000d7fa02fc332a569e1893d1859c7ac5f421dcc6b0",
            "0x0000000000000000000000008103b0a8a00be2ddc778e6e7eaa21791cd364625"
          ],
          "data": "0x00000000000000000000000000000000000000000000000029a2241af62c0000000000000000000000000000000000000000000000000000000000000000004000000000000000000000000000000000000000000000000000000000000000200000000000000000000000000000000000000000000000000000000000002165",
          "blockHash": "0x56ff811a8b1fac17a633ed6fddd093d0a463e1589446d396345fb42b30de8e0b",
          "blockNumber": "0x4e5407",
          "transactionHash": "0x98a47ad75ccc8601084ee6a1d1e71861bca137b59e1f932b2bd7882352daa528",
          "transactionIndex": "0x19",
          "logIndex": "0x10",
          "removed": false
        },
        {
          "address": "0x8103B0A8A00be2DDC778e6e7eaa21791Cd364625",
          "topics": [
            "0xd39ec07f4e209f627a4c427971473820dc129761ba28de8906bd56f57101d4f8",
            "0x0000000000000000000000000000000000000000000000000000000000002165"
          ],
          "data": "0x0000000000000000000000000000000000000000000000004563918244f400000000000000000000000000000000000000000000000000006f05b59d3b200000",
          "blockHash": "0x56ff811a8b1fac17a633ed6fddd093d0a463e1589446d396345fb42b30de8e0b",
          "blockNumber": "0x4e5407",
          "transactionHash": "0x98a47ad75ccc8601084ee6a1d1e71861bca137b59e1f932b2bd7882352daa528",
          "transactionIndex": "0x19",
          "logIndex": "0x11",
          "removed": false
        }
      ],
      "status": "0x1",
      "logsBloom": "0x0000001400000000000000000000000000000000000000020000000002000000000000000000800000000000000000200000000000000000000000000000000000000000000000000000000800000000400000000000000000002000000000000000000000001000000000000000000000000001400000000000001000000000000000000c000020000000000000800010000020000000000000000000000000000000000000000000000000000000000000000000000000000400000000000000000002000000000000000000000000080000000000000100000000000000000000000000000000000000000000000000000000400000000000000000000000",
      "type": "0x2",
      "effectiveGasPrice": "0x17ef97b3ef"
    }
  ],
  "libraries": [],
  "pending": [],
  "returns": {},
  "timestamp": 1705931957,
  "chain": 11155111,
  "multi": false,
  "commit": "6c8bf8a"
}